:020000020000FC
:100000000AC0FECFFDCFFCCFFBCFFACFF9CFF8CFA0
:10001000F7CFF6CF73C0FF24A0E6B0E000E0FD927A
:100020000A95E9F70DE008BB02E107BB06E007BD52
:1000300001E600BF00E60CBD0EE309BD02E00ABD0B
:1000400002E003BF00E109BFEEEBF1E0F894882481
:100050009924772478942591359131D0F89482169B
:1000600093067894D0F345914F3F71F3042F03D05A
:100070004078C9F3F0CFFF93EF93E02FEE0FFF2707
:10008000EC56F94F05911591C0916000C75FC633DA
:1000900008F0CC27C0936000DD27CF59DF4F20E068
:1000A0003CE0F894198308833C832B8378940FEF0A
:1000B0000D830E83FF82F886EF91FF910895FF93E1
:1000C000EF93C1E6D0E00E811FEF011789F01E8388
:1000D0000F8103950C3008F000E00F8348F0E885AD
:1000E000E39531F0E887FF27EC5FF84F04910D832B
:1000F0002996C73941F7EF91FF910895EFB66F0147
:100100005E01C1E6D0E0222433249A81EB81FC8198
:10011000849148805980940DE51DFF1DF03118F041
:10012000E058F040FE829A83FC83EB839D81182E79
:1001300087FD8195002490FD080E069491FD080E20
:10014000069492FD080E069493FD080E002494FD7B
:10015000080E069495FD080E069496FD080E06946A
:1001600097FD080E110C1F2C10F401941108200C9F
:10017000311C2996C73949F635942794359427942C
:100180008DEF90E0281639060CF01C0181E09FEFFE
:10019000281639060CF41C01359427943794822DC7
:1001A0008058982F909537FC83958EBD9BBD089401
:1001B0007F1C8F1C9F1CF601E501EFBE189578008F
:1001C000AB9600AAB400ABD200AAF000AB0E01A619
:1001D0002C01A94A01A76801248C860193A40198E7
:1001E000C2019BE0019FFE01A41C0226873A0293F4
:1001F00058029776029F9402A3B202A6D002278CDF
:10020000EE02930C03982A039F4803AB6603AA846B
:1002100003ABA203AAC003ABDE03A6FC03A91A0426
:10022000A73804248C56049374049892049BB00459
:100230009FCE04A4EC0426870A059328059746055B
:100240009F6405A78205A6A005248CBE0593DC0546
:10025000981806AB3606AA5406AB7206AA9006ABEF
:10026000AE06A6CC06A9EA06A70807248C260793A3
:1002700044079862079B80079F9E07A4BC072687B8
:10028000DA0793F8079716089F3408A35208A67058
:1002900008278C8E0893AC0898CA089FE808AB061C
:1002A00009AA2409AB4209AA6009AB7E09A69C09E8
:1002B000A9BA09A7D809248CF60993140A98320A16
:1002C0009B500A9F6E0AA48C0A2687AA0A93C80A22
:1002D00097E60A9F040BA7220BA6400B248C5E0B0B
:1002E000937C0B989A0BA6B80BA7D60BA9F40B2BF3
:1002F0008F120C96300C9B4E0CA26C0CAC8A0CAB83
:10030000A80C298AC60C96E40C98020DA0200DAB0F
:100310003E0DA95C0D278C7A0D93980D98B60D9F14
:10032000D40DA9F20DA7100E26872E0E934C0E9F0A
:100330006A0E9F880EABA60E9FC40EABE20EAB00FA
:100340000FB71E0FAA3C0FAB5A0FAA780FAB960F30
:10035000AAB40FABD20FAAF00FAB0E10AA2C10ABA1
:100360004A10AA6810AB8610A6A410A9C210A7E074
:1003700010248CFE10931C11983A119B58119F76F3
:1003800011A494112687B21193D01197EE119F0CEE
:1003900012A32A12A64812278C661293841298A2DE
:1003A000129FC012ABDE12AAFC12AB1A13AA3813AA
:1003B000AB5613A67413A99213A7B013248CCE13B3
:1003C00093EC13980A149B28149F4614A4641426D3
:1003D00087821493A01497BE149FDC14A7FA14A666
:1003E0001815248C3615935415987215A69015A7D8
:1003F000AE15A9CC152B8FEA159608169B2616A2CA
:100400004416AC6216AB8016298A9E1696BC1698C6
:10041000DA16A0F816AB1617A93417278C521793C3
:100420007017988E179FAC17A9CA17A7E8172687C9
:1004300006189324189F42189F6018AB7E189F9C43
:1004400018ABBA18ABD818B7F618AA1419AB3219EA
:10045000AA5019AB6E19AA8C19ABAA19AAC819AB64
:10046000E619AA041AAB221AAA401AAB5E1AA67C95
:100470001AA99A1AA7B81A248CD61A93F41A9812A1
:100480001B9B301B9F4E1BA46C1B26878A1B93A8AB
:100490001B97C61B9FE41BA3021CA6201C278C3E97
:1004A0001C935C1C987A1C9F981CABB61CAAD41C8D
:1004B000ABF21CAA101DAB2E1DA64C1DA96A1DA7D0
:1004C000881D248CA61D93C41D98E21D9B001E9FB1
:1004D0001E1EA43C1E26875A1E93781E97961E9FAA
:1004E000B41EA7D21EA6F01E248C0E1F932C1F989C
:1004F0004A1F271F1B99681F27201B98861F27222A
:100500001F1996A41F2794C21F98E01F9BFE1F98D7
:100510001C202C9B3A20984920AB58202B94762005
:100520009994209DB22099D020319DEE2099FD20F4
:10053000B00C2130942A212E9F48212C1916946644
:10054000212B9F842129191694A221279FC02125A0
:1005500094DE2198FC21249B1A22983822249B4760
:1005600022A2562224986522A574222794922298CA
:10057000B0229BCE2298EC22299B0A232A9828237A
:100580002B9346239864239B82232B98A0232C1D16
:1005900091BE232494DC232796FA239F18249636B1
:1005A000249F542429967224A28124A69024291FD2
:1005B0009B9F24AEAE24A2BD24AECC24A4DB24AEEB
:1005C000EA242622A0F924AE082527229F1725AE6B
:1005D00026252922209D3525AE44252B221F9B53FD
:1005E00025AE6225B37125B280253018948F25AED3
:1005F0009E25ACAD25ABBC25291A96CB25AEDA25B8
:10060000ACE925A9F825291F9B0726AE1626A225A9
:1006100026AE3426A44326AE52262622A06126AE5C
:10062000702627229F7F26AE8E262922209D9D267A
:10063000AEAC262B221F9BBB26AECA26B3D926B250
:10064000E826301894F726AE0627AC1527AB2427EA
:10065000291A963327AE4227AC5127A960272B18B9
:10066000976F27AC7E27AB8D27AA9C27ABAB27A61D
:10067000BA27ABC927AAD827ABE727A6F627AB0529
:1006800028AA1428AB6E28A68C28ABAA28AAC828AA
:10069000AB302AFFE100EF00FD000C011C012D0131
:1006A0003F01520166017B019101A901C301DD01F6
:1006B000FA011802380259027D02A302CB02F602A7
:1006C000230353038503BB03F30330046F04B30414
:1006D000FA0446059605EB054606A5060A077507C2
:1006E000E7075F08DF086609F5098C0A2D0BD70BB1
:1006F0008B0C4A0D140EEA0ECE0FBE10BE11CC129A
:10070000EA131815FFFCFAF7F5F3F0EEEBE9E7E46E
:10071000E2E0DEDBD9D7D5D3D1CFCDCBC9C7C5C3B6
:10072000C1BFBDBBB9B7B6B4B2B0AEADABA9A8A698
:10073000A4A3A19F9E9C9B999896959392908F8D30
:100740008C8B89888685848281807F7D7C7B7A788A
:10075000777675747371706F6E6D6C6B6A696867AC
:10076000666564636261605F5E5D5C5B5A595857A1
:100770005756555453525251504F4E4E4D4C4B4B71
:100780004A49484847464545444343424141404021
:100790003F3E3E3D3C3C3B3B3A39393838373736B3
:1007A000363535343333323231313030302F2F2E2D
:1007B0002E2D2D2C2C2B2B2B2A2A29282827272697
:1007C00026252524232322222121201F1F1E1E1D12
:1007D0001D1C1C1B1A1A1919181817161615151492
:1007E00014131312111110100F0F0E0D0D0C0C0B12
:1007F0000B0A0A0908080707060605040403030292
:0408000002010100F0
:100C0000000000000000FFFEFEFDFEFEFF000000F1
:100C10000000FFFEFDFDFCFCFDFEFF0000010000EA
:100C200000FFFEFDFDFE00000204050505030100B6
:100C3000FEFDFCFDFE000102030200FEFAF5F1EEEE
:100C4000EDEDF0F5FB01080F1417181714110D0A3C
:100C5000070606080A0D10121414141312121212A9
:100C60001315181A1B1C1B1916110B0500FBF7F4A2
:100C7000F3F3F5F7FBFF010406060400FBF4EBE2D7
:100C8000D9D0C8C2BEBBBAB9BABABAB9B8B5B3B18D
:100C9000B0B2B5BBC3CEDAE6F3FE070F15191C1EC2
:100CA0002124282C31373B3D3E3C38312A221B166B
:100CB000141519212A343F485056595A595754513E
:100CC0004F4D4B494845423D3730271F160E060011
:100CD000FBF6F2EFECEAE8E6E4E3E2E1E0DFDEDD9A
:100CE000DCDBD9D7D4D0CCC7C1BAB3ABA29A928C33
:100CF000878484878C939DA7B2BCC4CBD0D3D5D531
:100D0000D5D6D7D8DBDFE3E7EAEDEFF0F1F2F4F781
:100D1000FC020B16222E39434B515456575656554A
:100D200055555656575654524E4945403C3A383917
:100D30003B3E42464B4F5356595B5C5C5C5A5651A6
:100D4000493F34261809FBEDE1D6CEC7C3C0BEBD6E
:100D5000BCBCBCBDBEC0C3C8CCD2D7DCE0E3E4E4BD
:100D6000E2DED9D4CEC8C2BCB6B1ACA6A19C9895DF
:100D7000949495999EA4ACB4BDC6CFD8E0E8F0F8A1
:100D8000FF050B1014161615120E0A0501FFFDFDC6
:100D9000FE000105090C1014181C22282F374048AA
:100DA00051596065696C6C6C6B6967656462605D04
:100DB0005A57534F4B46423E3B3837353433323027
:100DC0002E2C2A2725221F1C18140F0A03FDF4EBD2
:100DD000E2D9D0C7BFB8B1ABA6A19D999693929026
:100DE00090909192939596979898999A9B9D9FA28F
:100DF000A6AAAEB2B5B8BBBDBFC1C3C6CACED4DA0F
:100E0000E1E9F0F6FC01060A0E12171B20262B3131
:100E1000363B3F4346494B4D4F515355585B5D6000
:100E2000636567696B6D6E6F7070706F6D6B686412
:100E3000605C58534F4B46413C37312B241E1812EF
:100E40000C070300FDFAF8F5F2EFECE8E4E0DBD67E
:100E5000D2CDC9C5C1BDB9B5B1AEABA8A5A3A19F3F
:100E60009E9C9B9A99989898999B9DA0A3A7AAADA0
:100E7000B0B2B4B5B6B7B8B9BABCBFC1C5C8CCD0AA
:100E8000D4D8DDE2E8EEF5FC030B131B2229303544
:100E90003A3F43474B4F5256595C5E5F6061626216
:100EA00063646567696C6E7072737372716E6B6781
:100EB000635F5B57534F4A46413B352F29231D182B
:100EC000130E0B070401FFFBF7F2EDE7E1DBD5CED4
:100ED000C8C2BCB7B2ADA8A49F9B9793908D8B89D5
:100EE000888788898A8C8E909396989B9DA0A2A5CE
:100EF000A8ABAFB2B6BABEC2C7CBCFD3D7DBE0E5A3
:100F0000EAF0F6FC01080E14191F24292E32373C92
:100F10004045494D5155585A5D5F616365676A6D3B
:100F2000707376797B7D7E7E7D7D7B79777573703E
:100F30006E6B67635E59534C453E362F271F181062
:100F40000902FCF5EEE7E1DAD4CDC7C2BCB7B1AC1B
:100F5000A8A39F9A96938F8C8987858483828181A9
:100F600081818283838586888A8C8E9195989CA1C5
:100F7000A5AAB0B5BBC1C6CCD2D8DEE4EAF0F6FC77
:100F800000050B11171C22272D32373C41454A4ED4
:100F90005255595C5F626466686A6B6D6D6E6E6F08
:100FA0006E6E6D6C6B6A686664625F5D5A57535013
:100FB0004C4844403B37322E29241F1A150F0A058E
:100FC00000FBF6F1EBE6E1DCD7D2CEC9C5C0BCB878
:100FD000B4B0ADA9A6A3A19E9C9A9896959493921D
:100FE0009291929293939596989A9C9EA1A4A7AB66
:100FF000AEB2B6BBBFC4C9CED3D9DEE4E9EFF5FBD0
:00000001FF
